:1000000071C000008EC000008CC000008AC00000DB
:1000100088C0000086C0000084C0000082C00000CC
:1000200080C000007EC000007CC000007AC00000DC
:1000300078C0000076C0000074C0000072C00000EC
:1000400070C000009EC000006CC000006AC00000CC
:1000500068C0000066C0000064C0000062C000000C
:1000600060C000005EC000005CC000005AC000001C
:1000700058C0000056C0000054C0000052C000002C
:1000800050C000004EC000004CC000004AC000003C
:1000900048C0000046C0000044C0000042C000004C
:1000A00040C000003EC000003CC000003AC000005C
:1000B00038C0000036C0000034C0000032C000006C
:1000C00030C000002EC000002CC000002AC000007C
:1000D00028C0000026C0000024C0000022C000008C
:1000E00020C0000011241FBECFEFD1E2DEBFCDBF84
:1000F00000E00CBF12E0A0E0B2E0E2EEF5E000E0CC
:100100000BBF02C007900D92A230B107D9F722E0D1
:10011000A2E0B2E001C01D92A033B207E1F719D00E
:100120005EC26ECFE4E6F0E080818460808384EC80
:10013000809380008DE08093810089E09DE390931F
:10014000890080938800EFE6F0E080818260808300
:1001500008951092050210920402089AE3DF789441
:1001600087E690E0EBD06AD08FD0E0910002F0916A
:10017000010280819181892BE1F38AD080E090E0B7
:1001800008951F920F920FB60F9211240BB60F9283
:100190002F933F934F935F936F937F938F939F938F
:1001A000AF93BF93EF93FF93809104029091050268
:1001B000892B41F4109A81E090E09093050280939E
:1001C000040205C010981092050210920402B19A20
:1001D0008091020290910302889721F41092030209
:1001E0001092020280910202909103020196909374
:1001F00003028093020280910202909103022AD0AE
:10020000809102029091030265E070E0C1D1892BD8
:1002100011F481E698D0FF91EF91BF91AF919F913A
:100220008F917F916F915F914F913F912F910F909F
:100230000BBE0F900FBE0F901F901895249AE0EB05
:10024000F0E0808183688083E1EBF0E080818F6063
:10025000808308959C01215031092732310588F4AB
:1002600068E270E095D1072E000C880B990BA1D0A5
:1002700020E030E040E853E428D16DD06093B30033
:1002800008951092B300089584E090E020C008958E
:10029000089560E070E080E89FE7089560E070E016
:1002A00080E89FE7089560E070E080E89FEF0895A0
:1002B00060E070E080E89FEF089560E070E080EC1F
:1002C0009FEF089560E070E080EC9FEF0895F5DF08
:1002D0006093240270932502809326029093270254
:1002E000F1DF609318027093190280931A029093C1
:1002F0001B02CFDF609320027093210280932202C1
:1003000090932302CBDF60931C0270931D028093B5
:100310001E0290931F02C7DF609328027093290288
:1003200080932A0290932B02C3DF60932C02709378
:100330002D0280932E0290932F0208959093C50072
:100340008093C4000895E0ECF0E0908195FFFDCF2C
:100350008093C600089598D088F09F5790F0B92FE9
:100360009927B751A0F0D1F0660F771F881F991F0A
:100370001AF0BA95C9F712C0B13081F09FD0B1E040
:1003800008959CC0672F782F8827B85F39F0B93F50
:10039000CCF3869577956795B395D9F73EF490950C
:1003A0008095709561957F4F8F4F9F4F0895E8948A
:1003B00009C097FB3EF490958095709561957F4FAD
:1003C0008F4F9F4F9923A9F0F92F96E9BB2793955B
:1003D000F695879577956795B795F111F8CFFAF46B
:1003E000BB0F11F460FF1BC06F5F7F4F8F4F9F4F9C
:1003F00016C0882311F096E911C0772321F09EE8FA
:10040000872F762F05C0662371F096E8862F70E05F
:1004100060E02AF09A95660F771F881FDAF7880F39
:100420009695879597F9089597F99F6780E870E00A
:1004300060E008959FEF80EC089500240A9416165A
:10044000170618060906089500240A9412161306C2
:10045000140605060895092E0394000C11F4882350
:1004600052F0BB0F40F4BF2B11F460FF04C06F5F6C
:100470007F4F8F4F9F4F089557FD9058440F551F42
:1004800059F05F3F71F04795880F97FB991F61F016
:100490009F3F79F087950895121613061406551F8D
:1004A000F2CF4695F1DF08C0161617061806991FF9
:1004B000F1CF86957105610508940895E894BB27EE
:1004C00066277727CB0197F908950BD0C4CFB5DF06
:1004D00028F0BADF18F0952309F0A6CFABCF11248E
:1004E000EECFCADFA0F3959FD1F3950F50E0551FD3
:1004F000629FF001729FBB27F00DB11D639FAA2779
:10050000F00DB11DAA1F649F6627B00DA11D661FC7
:10051000829F2227B00DA11D621F739FB00DA11DE8
:10052000621F839FA00D611D221F749F3327A00DA2
:10053000611D231F849F600D211D822F762F6A2F3E
:1005400011249F5750408AF0E1F088234AF0EE0FC3
:10055000FF1FBB1F661F771F881F91505040A9F7D0
:100560009E3F510570F060CFAACF5F3FECF3983EFD
:10057000DCF3869577956795B795F795E7959F5F37
:10058000C1F7FE2B880F911D9695879597F90895D1
:1005900097FB072E16F4009406D077FD08D00BD0F9
:1005A00007FC05D03EF4909581959F4F0895709576
:1005B00061957F4F0895AA1BBB1B51E107C0AA1F7D
:1005C000BB1FA617B70710F0A61BB70B881F991FF4
:1005D0005A95A9F780959095BC01CD010895F8949E
:0205E000FFCF4B
:0205E200120203
:00000001FF
